{
  "contractName": "FreezableImplementationDirectory",
  "abi": [
    {
      "constant": true,
      "inputs": [],
      "name": "frozen",
      "outputs": [
        {
          "name": "",
          "type": "bool"
        }
      ],
      "payable": false,
      "stateMutability": "view",
      "type": "function"
    },
    {
      "constant": true,
      "inputs": [
        {
          "name": "contractName",
          "type": "string"
        }
      ],
      "name": "getImplementation",
      "outputs": [
        {
          "name": "",
          "type": "address"
        }
      ],
      "payable": false,
      "stateMutability": "view",
      "type": "function"
    },
    {
      "constant": true,
      "inputs": [],
      "name": "owner",
      "outputs": [
        {
          "name": "",
          "type": "address"
        }
      ],
      "payable": false,
      "stateMutability": "view",
      "type": "function"
    },
    {
      "constant": false,
      "inputs": [
        {
          "name": "newOwner",
          "type": "address"
        }
      ],
      "name": "transferOwnership",
      "outputs": [],
      "payable": false,
      "stateMutability": "nonpayable",
      "type": "function"
    },
    {
      "anonymous": false,
      "inputs": [
        {
          "indexed": false,
          "name": "contractName",
          "type": "string"
        },
        {
          "indexed": false,
          "name": "implementation",
          "type": "address"
        }
      ],
      "name": "ImplementationChanged",
      "type": "event"
    },
    {
      "anonymous": false,
      "inputs": [
        {
          "indexed": true,
          "name": "previousOwner",
          "type": "address"
        },
        {
          "indexed": true,
          "name": "newOwner",
          "type": "address"
        }
      ],
      "name": "OwnershipTransferred",
      "type": "event"
    },
    {
      "constant": false,
      "inputs": [],
      "name": "freeze",
      "outputs": [],
      "payable": false,
      "stateMutability": "nonpayable",
      "type": "function"
    },
    {
      "constant": false,
      "inputs": [
        {
          "name": "contractName",
          "type": "string"
        },
        {
          "name": "implementation",
          "type": "address"
        }
      ],
      "name": "setImplementation",
      "outputs": [],
      "payable": false,
      "stateMutability": "nonpayable",
      "type": "function"
    }
  ],
  "bytecode": "0x6080604052336000806101000a81548173ffffffffffffffffffffffffffffffffffffffff021916908373ffffffffffffffffffffffffffffffffffffffff160217905550610774806100536000396000f300608060405260043610610078576000357c0100000000000000000000000000000000000000000000000000000000900463ffffffff168063054f7d9c1461007d57806306419fe5146100ac57806362a5af3b146101355780636b6838961461014c5780638da5cb5b146101f5578063f2fde38b1461024c575b600080fd5b34801561008957600080fd5b5061009261028f565b604051808215151515815260200191505060405180910390f35b3480156100b857600080fd5b50610133600480360381019080803590602001908201803590602001908080601f0160208091040260200160405190810160405280939291908181526020018383808284378201915050505050509192919290803573ffffffffffffffffffffffffffffffffffffffff1690602001909291905050506102a2565b005b34801561014157600080fd5b5061014a6102cc565b005b34801561015857600080fd5b506101b3600480360381019080803590602001908201803590602001908080601f0160208091040260200160405190810160405280939291908181526020018383808284378201915050505050509192919290505050610360565b604051808273ffffffffffffffffffffffffffffffffffffffff1673ffffffffffffffffffffffffffffffffffffffff16815260200191505060405180910390f35b34801561020157600080fd5b5061020a6103f5565b604051808273ffffffffffffffffffffffffffffffffffffffff1673ffffffffffffffffffffffffffffffffffffffff16815260200191505060405180910390f35b34801561025857600080fd5b5061028d600480360381019080803573ffffffffffffffffffffffffffffffffffffffff16906020019092919050505061041a565b005b600260009054906101000a900460ff1681565b600260009054906101000a900460ff161515156102be57600080fd5b6102c8828261056f565b5050565b6000809054906101000a900473ffffffffffffffffffffffffffffffffffffffff1673ffffffffffffffffffffffffffffffffffffffff163373ffffffffffffffffffffffffffffffffffffffff1614151561032757600080fd5b600260009054906101000a900460ff1615151561034357600080fd5b6001600260006101000a81548160ff021916908315150217905550565b60006001826040518082805190602001908083835b60208310151561039a5780518252602082019150602081019050602083039250610375565b6001836020036101000a038019825116818451168082178552505050505050905001915050908152602001604051809103902060009054906101000a900473ffffffffffffffffffffffffffffffffffffffff169050919050565b6000809054906101000a900473ffffffffffffffffffffffffffffffffffffffff1681565b6000809054906101000a900473ffffffffffffffffffffffffffffffffffffffff1673ffffffffffffffffffffffffffffffffffffffff163373ffffffffffffffffffffffffffffffffffffffff1614151561047557600080fd5b600073ffffffffffffffffffffffffffffffffffffffff168173ffffffffffffffffffffffffffffffffffffffff16141515156104b157600080fd5b8073ffffffffffffffffffffffffffffffffffffffff166000809054906101000a900473ffffffffffffffffffffffffffffffffffffffff1673ffffffffffffffffffffffffffffffffffffffff167f8be0079c531659141344cd1fd0a4f28419497f9722a3daafe3b4186f6b6457e060405160405180910390a3806000806101000a81548173ffffffffffffffffffffffffffffffffffffffff021916908373ffffffffffffffffffffffffffffffffffffffff16021790555050565b6000809054906101000a900473ffffffffffffffffffffffffffffffffffffffff1673ffffffffffffffffffffffffffffffffffffffff163373ffffffffffffffffffffffffffffffffffffffff161415156105ca57600080fd5b806001836040518082805190602001908083835b60208310151561060357805182526020820191506020810190506020830392506105de565b6001836020036101000a038019825116818451168082178552505050505050905001915050908152602001604051809103902060006101000a81548173ffffffffffffffffffffffffffffffffffffffff021916908373ffffffffffffffffffffffffffffffffffffffff1602179055507fd46d20dadc2a85a470fddb00aee90ec2cc1f302e7e2dbf61ffaef72527f3c659828260405180806020018373ffffffffffffffffffffffffffffffffffffffff1673ffffffffffffffffffffffffffffffffffffffff168152602001828103825284818151815260200191508051906020019080838360005b838110156107095780820151818401526020810190506106ee565b50505050905090810190601f1680156107365780820380516001836020036101000a031916815260200191505b50935050505060405180910390a150505600a165627a7a72305820d07a2ddfa29ffbafb69f13dd97356abe0bf499537594803602f9a0d9bb6c4c8c0029",
  "source": "pragma solidity ^0.4.21;\n\nimport \"./ImplementationDirectory.sol\";\n\n/**\n * @title FreezableImplementationDirectory\n * @dev Implementation directory which can be made immutable by the owner \n */\n contract FreezableImplementationDirectory is ImplementationDirectory {\n  // Stores the mutability state of the directory\n  bool public frozen;\n\n  /**\n   * @dev Modifier that allows functions to be called only when the contract is not frozen\n   */\n  modifier whenNotFrozen() {\n    require(!frozen);\n    _;\n  }\n  \n  /**\n   * @dev Makes the directory irreversibly immutable. Can only be called once, by the owner\n   */\n  function freeze() onlyOwner whenNotFrozen public {\n    frozen = true;\n  }\n  \n  /**\n   * @dev Adds the address of an implementation to the directory\n   * @dev Overrides parent implementation to prevent it from running if the directory is frozen\n   * @param contractName Name of the contract whose implementation address is being added\n   * @param implementation Address where the contract is implemented\n   */\n  function setImplementation(string contractName, address implementation) public whenNotFrozen {\n    super.setImplementation(contractName, implementation);\n  }\n}\n",
  "sourcePath": "zos-lib/contracts/application/versioning/FreezableImplementationDirectory.sol",
  "compiler": {
    "name": "solc",
    "version": "0.4.23+commit.124ca40d.Emscripten.clang"
  },
  "schemaVersion": "2.0.0",
  "updatedAt": "2018-05-16T21:00:36.274Z"
}