{
  "contractName": "ImplementationDirectory",
  "abi": [
    {
      "constant": true,
      "inputs": [],
      "name": "owner",
      "outputs": [
        {
          "name": "",
          "type": "address"
        }
      ],
      "payable": false,
      "stateMutability": "view",
      "type": "function"
    },
    {
      "constant": false,
      "inputs": [
        {
          "name": "newOwner",
          "type": "address"
        }
      ],
      "name": "transferOwnership",
      "outputs": [],
      "payable": false,
      "stateMutability": "nonpayable",
      "type": "function"
    },
    {
      "anonymous": false,
      "inputs": [
        {
          "indexed": false,
          "name": "contractName",
          "type": "string"
        },
        {
          "indexed": false,
          "name": "implementation",
          "type": "address"
        }
      ],
      "name": "ImplementationChanged",
      "type": "event"
    },
    {
      "anonymous": false,
      "inputs": [
        {
          "indexed": true,
          "name": "previousOwner",
          "type": "address"
        },
        {
          "indexed": true,
          "name": "newOwner",
          "type": "address"
        }
      ],
      "name": "OwnershipTransferred",
      "type": "event"
    },
    {
      "constant": true,
      "inputs": [
        {
          "name": "contractName",
          "type": "string"
        }
      ],
      "name": "getImplementation",
      "outputs": [
        {
          "name": "",
          "type": "address"
        }
      ],
      "payable": false,
      "stateMutability": "view",
      "type": "function"
    },
    {
      "constant": false,
      "inputs": [
        {
          "name": "contractName",
          "type": "string"
        },
        {
          "name": "implementation",
          "type": "address"
        }
      ],
      "name": "setImplementation",
      "outputs": [],
      "payable": false,
      "stateMutability": "nonpayable",
      "type": "function"
    }
  ],
  "bytecode": "0x6080604052336000806101000a81548173ffffffffffffffffffffffffffffffffffffffff021916908373ffffffffffffffffffffffffffffffffffffffff160217905550610647806100536000396000f300608060405260043610610062576000357c0100000000000000000000000000000000000000000000000000000000900463ffffffff16806306419fe5146100675780636b683896146100f05780638da5cb5b14610199578063f2fde38b146101f0575b600080fd5b34801561007357600080fd5b506100ee600480360381019080803590602001908201803590602001908080601f0160208091040260200160405190810160405280939291908181526020018383808284378201915050505050509192919290803573ffffffffffffffffffffffffffffffffffffffff169060200190929190505050610233565b005b3480156100fc57600080fd5b50610157600480360381019080803590602001908201803590602001908080601f016020809104026020016040519081016040528093929190818152602001838380828437820191505050505050919291929050505061040c565b604051808273ffffffffffffffffffffffffffffffffffffffff1673ffffffffffffffffffffffffffffffffffffffff16815260200191505060405180910390f35b3480156101a557600080fd5b506101ae6104a1565b604051808273ffffffffffffffffffffffffffffffffffffffff1673ffffffffffffffffffffffffffffffffffffffff16815260200191505060405180910390f35b3480156101fc57600080fd5b50610231600480360381019080803573ffffffffffffffffffffffffffffffffffffffff1690602001909291905050506104c6565b005b6000809054906101000a900473ffffffffffffffffffffffffffffffffffffffff1673ffffffffffffffffffffffffffffffffffffffff163373ffffffffffffffffffffffffffffffffffffffff1614151561028e57600080fd5b806001836040518082805190602001908083835b6020831015156102c757805182526020820191506020810190506020830392506102a2565b6001836020036101000a038019825116818451168082178552505050505050905001915050908152602001604051809103902060006101000a81548173ffffffffffffffffffffffffffffffffffffffff021916908373ffffffffffffffffffffffffffffffffffffffff1602179055507fd46d20dadc2a85a470fddb00aee90ec2cc1f302e7e2dbf61ffaef72527f3c659828260405180806020018373ffffffffffffffffffffffffffffffffffffffff1673ffffffffffffffffffffffffffffffffffffffff168152602001828103825284818151815260200191508051906020019080838360005b838110156103cd5780820151818401526020810190506103b2565b50505050905090810190601f1680156103fa5780820380516001836020036101000a031916815260200191505b50935050505060405180910390a15050565b60006001826040518082805190602001908083835b6020831015156104465780518252602082019150602081019050602083039250610421565b6001836020036101000a038019825116818451168082178552505050505050905001915050908152602001604051809103902060009054906101000a900473ffffffffffffffffffffffffffffffffffffffff169050919050565b6000809054906101000a900473ffffffffffffffffffffffffffffffffffffffff1681565b6000809054906101000a900473ffffffffffffffffffffffffffffffffffffffff1673ffffffffffffffffffffffffffffffffffffffff163373ffffffffffffffffffffffffffffffffffffffff1614151561052157600080fd5b600073ffffffffffffffffffffffffffffffffffffffff168173ffffffffffffffffffffffffffffffffffffffff161415151561055d57600080fd5b8073ffffffffffffffffffffffffffffffffffffffff166000809054906101000a900473ffffffffffffffffffffffffffffffffffffffff1673ffffffffffffffffffffffffffffffffffffffff167f8be0079c531659141344cd1fd0a4f28419497f9722a3daafe3b4186f6b6457e060405160405180910390a3806000806101000a81548173ffffffffffffffffffffffffffffffffffffffff021916908373ffffffffffffffffffffffffffffffffffffffff160217905550505600a165627a7a72305820752c74a27ae8e7eb46eda6407ad8627400e0b9197e7e56bb353c4fc49305df820029",
  "source": "pragma solidity ^0.4.21;\n\nimport \"./ImplementationProvider.sol\";\nimport \"zeppelin-solidity/contracts/ownership/Ownable.sol\";\n\n/**\n * @title ImplementationDirectory\n * @dev Concrete version of ImplementationProvider that stores contract implementations in a mapping\n */\ncontract ImplementationDirectory is ImplementationProvider, Ownable {\n  /**\n   * @dev Emitted when an implementation is added to the directory\n   * @param contractName Name of the contract for which an implementation was added\n   * @param implementation Address of added implementation\n   */\n  event ImplementationChanged(string contractName, address implementation);\n\n  // Mapping where the addresses of the implementations are stored\n  mapping (string => address) internal implementations;\n\n  /**\n   * @dev Gets the implementation address for a given contract name\n   * @param contractName Name of the contract whose implementation address is desired\n   * @return Address of the implementation\n   */\n  function getImplementation(string contractName) public view returns (address) {\n    return implementations[contractName];\n  }\n\n  /**\n   * @dev Adds the address of an implementation to the directory\n   * @param contractName Name of the contract whose implementation address is added\n   * @param implementation Address of the implementation\n   */\n  function setImplementation(string contractName, address implementation) public onlyOwner {\n    implementations[contractName] = implementation;\n    emit ImplementationChanged(contractName, implementation);\n  }\n}\n",
  "sourcePath": "zos-lib/contracts/application/versioning/ImplementationDirectory.sol",
  "compiler": {
    "name": "solc",
    "version": "0.4.23+commit.124ca40d.Emscripten.clang"
  },
  "schemaVersion": "2.0.0",
  "updatedAt": "2018-05-16T21:00:36.274Z"
}