{
  "contractName": "Package",
  "abi": [
    {
      "constant": true,
      "inputs": [],
      "name": "owner",
      "outputs": [
        {
          "name": "",
          "type": "address"
        }
      ],
      "payable": false,
      "stateMutability": "view",
      "type": "function"
    },
    {
      "constant": false,
      "inputs": [
        {
          "name": "newOwner",
          "type": "address"
        }
      ],
      "name": "transferOwnership",
      "outputs": [],
      "payable": false,
      "stateMutability": "nonpayable",
      "type": "function"
    },
    {
      "anonymous": false,
      "inputs": [
        {
          "indexed": false,
          "name": "version",
          "type": "string"
        },
        {
          "indexed": false,
          "name": "provider",
          "type": "address"
        }
      ],
      "name": "VersionAdded",
      "type": "event"
    },
    {
      "anonymous": false,
      "inputs": [
        {
          "indexed": true,
          "name": "previousOwner",
          "type": "address"
        },
        {
          "indexed": true,
          "name": "newOwner",
          "type": "address"
        }
      ],
      "name": "OwnershipTransferred",
      "type": "event"
    },
    {
      "constant": true,
      "inputs": [
        {
          "name": "version",
          "type": "string"
        }
      ],
      "name": "getVersion",
      "outputs": [
        {
          "name": "",
          "type": "address"
        }
      ],
      "payable": false,
      "stateMutability": "view",
      "type": "function"
    },
    {
      "constant": false,
      "inputs": [
        {
          "name": "version",
          "type": "string"
        },
        {
          "name": "provider",
          "type": "address"
        }
      ],
      "name": "addVersion",
      "outputs": [],
      "payable": false,
      "stateMutability": "nonpayable",
      "type": "function"
    },
    {
      "constant": true,
      "inputs": [
        {
          "name": "version",
          "type": "string"
        }
      ],
      "name": "hasVersion",
      "outputs": [
        {
          "name": "",
          "type": "bool"
        }
      ],
      "payable": false,
      "stateMutability": "view",
      "type": "function"
    },
    {
      "constant": true,
      "inputs": [
        {
          "name": "version",
          "type": "string"
        },
        {
          "name": "contractName",
          "type": "string"
        }
      ],
      "name": "getImplementation",
      "outputs": [
        {
          "name": "",
          "type": "address"
        }
      ],
      "payable": false,
      "stateMutability": "view",
      "type": "function"
    }
  ],
  "bytecode": "0x6080604052336000806101000a81548173ffffffffffffffffffffffffffffffffffffffff021916908373ffffffffffffffffffffffffffffffffffffffff160217905550610a0d806100536000396000f300608060405260043610610078576000357c0100000000000000000000000000000000000000000000000000000000900463ffffffff1680632200919f1461007d57806327a0d669146101065780633ab50a9c146101f55780638da5cb5b1461029e578063eb0a70c1146102f5578063f2fde38b14610376575b600080fd5b34801561008957600080fd5b50610104600480360381019080803590602001908201803590602001908080601f0160208091040260200160405190810160405280939291908181526020018383808284378201915050505050509192919290803573ffffffffffffffffffffffffffffffffffffffff1690602001909291905050506103b9565b005b34801561011257600080fd5b506101b3600480360381019080803590602001908201803590602001908080601f0160208091040260200160405190810160405280939291908181526020018383808284378201915050505050509192919290803590602001908201803590602001908080601f01602080910402602001604051908101604052809392919081815260200183838082843782019150505050505091929192905050506105a7565b604051808273ffffffffffffffffffffffffffffffffffffffff1673ffffffffffffffffffffffffffffffffffffffff16815260200191505060405180910390f35b34801561020157600080fd5b5061025c600480360381019080803590602001908201803590602001908080601f01602080910402602001604051908101604052809392919081815260200183838082843782019150505050505091929192905050506106cd565b604051808273ffffffffffffffffffffffffffffffffffffffff1673ffffffffffffffffffffffffffffffffffffffff16815260200191505060405180910390f35b3480156102aa57600080fd5b506102b36107a3565b604051808273ffffffffffffffffffffffffffffffffffffffff1673ffffffffffffffffffffffffffffffffffffffff16815260200191505060405180910390f35b34801561030157600080fd5b5061035c600480360381019080803590602001908201803590602001908080601f01602080910402602001604051908101604052809392919081815260200183838082843782019150505050505091929192905050506107c8565b604051808215151515815260200191505060405180910390f35b34801561038257600080fd5b506103b7600480360381019080803573ffffffffffffffffffffffffffffffffffffffff16906020019092919050505061088c565b005b6000809054906101000a900473ffffffffffffffffffffffffffffffffffffffff1673ffffffffffffffffffffffffffffffffffffffff163373ffffffffffffffffffffffffffffffffffffffff1614151561041457600080fd5b61041d826107c8565b15151561042957600080fd5b806001836040518082805190602001908083835b602083101515610462578051825260208201915060208101905060208303925061043d565b6001836020036101000a038019825116818451168082178552505050505050905001915050908152602001604051809103902060006101000a81548173ffffffffffffffffffffffffffffffffffffffff021916908373ffffffffffffffffffffffffffffffffffffffff1602179055507fe2a08c9e50f4a219841f60ac40fa9d1f2cccb83ac2d3439c8c568fdf1f7c19e4828260405180806020018373ffffffffffffffffffffffffffffffffffffffff1673ffffffffffffffffffffffffffffffffffffffff168152602001828103825284818151815260200191508051906020019080838360005b8381101561056857808201518184015260208101905061054d565b50505050905090810190601f1680156105955780820380516001836020036101000a031916815260200191505b50935050505060405180910390a15050565b6000806105b3846106cd565b90508073ffffffffffffffffffffffffffffffffffffffff16636b683896846040518263ffffffff167c01000000000000000000000000000000000000000000000000000000000281526004018080602001828103825283818151815260200191508051906020019080838360005b8381101561063d578082015181840152602081019050610622565b50505050905090810190601f16801561066a5780820380516001836020036101000a031916815260200191505b5092505050602060405180830381600087803b15801561068957600080fd5b505af115801561069d573d6000803e3d6000fd5b505050506040513d60208110156106b357600080fd5b810190808051906020019092919050505091505092915050565b6000806001836040518082805190602001908083835b60208310151561070857805182526020820191506020810190506020830392506106e3565b6001836020036101000a038019825116818451168082178552505050505050905001915050908152602001604051809103902060009054906101000a900473ffffffffffffffffffffffffffffffffffffffff169050600073ffffffffffffffffffffffffffffffffffffffff168173ffffffffffffffffffffffffffffffffffffffff161415151561079a57600080fd5b80915050919050565b6000809054906101000a900473ffffffffffffffffffffffffffffffffffffffff1681565b60008073ffffffffffffffffffffffffffffffffffffffff166001836040518082805190602001908083835b60208310151561081957805182526020820191506020810190506020830392506107f4565b6001836020036101000a038019825116818451168082178552505050505050905001915050908152602001604051809103902060009054906101000a900473ffffffffffffffffffffffffffffffffffffffff1673ffffffffffffffffffffffffffffffffffffffff1614159050919050565b6000809054906101000a900473ffffffffffffffffffffffffffffffffffffffff1673ffffffffffffffffffffffffffffffffffffffff163373ffffffffffffffffffffffffffffffffffffffff161415156108e757600080fd5b600073ffffffffffffffffffffffffffffffffffffffff168173ffffffffffffffffffffffffffffffffffffffff161415151561092357600080fd5b8073ffffffffffffffffffffffffffffffffffffffff166000809054906101000a900473ffffffffffffffffffffffffffffffffffffffff1673ffffffffffffffffffffffffffffffffffffffff167f8be0079c531659141344cd1fd0a4f28419497f9722a3daafe3b4186f6b6457e060405160405180910390a3806000806101000a81548173ffffffffffffffffffffffffffffffffffffffff021916908373ffffffffffffffffffffffffffffffffffffffff160217905550505600a165627a7a72305820a36c0c26bd35afc5fc7bda63ff2bd80a89be1bb41f889c7686d149f0b97aab250029",
  "source": "pragma solidity ^0.4.21;\n\nimport \"./ImplementationProvider.sol\";\nimport \"zeppelin-solidity/contracts/ownership/Ownable.sol\";\n\n/**\n * @title Package\n * @dev Complex collection of contracts that groups contracts into versions\n * @dev Contracts with the same name can have different implementation addresses in different versions\n */\ncontract Package is Ownable {\n  /**\n   * @dev This event signals the addition of a version to the package\n   * @dev Version is not indexed due to truffle testing constraints\n   * @param version Name of the version added\n   * @param provider ImplementationProvider associated with the added version\n   */\n  event VersionAdded(string version, ImplementationProvider provider);\n\n  /*\n   * @dev Mapping that stores the association between versions \n   * @dev and their implementation providers.\n   */\n  mapping (string => ImplementationProvider) internal versions;\n  \n  /**\n   * @dev Gets the implementation provider for a given version\n   * @param version name of the version\n   * @return Implementation provider for the given version\n   */\n  function getVersion(string version) public view returns (ImplementationProvider) {\n    ImplementationProvider provider = versions[version];\n    require(provider != address(0));\n    return provider;\n  }\n\n  /**\n   * @dev Adds the implementation provider of a new version to the package\n   * @param version Name of the new version\n   * @param provider ImplementationProvider associated with the new version\n   */\n  function addVersion(string version, ImplementationProvider provider) public onlyOwner {\n    require(!hasVersion(version));\n    versions[version] = provider;\n    emit VersionAdded(version, provider);\n  }\n\n  /**\n   * @dev Checks whether a version is present in the package\n   * @param version Name of the version to be checked for\n   * @return true if the version is already in the package\n   */\n  function hasVersion(string version) public view returns (bool) {\n    return address(versions[version]) != address(0);\n  }\n\n  /**\n   * @dev Gets the implementation address for a given version and contract name\n   * @param version Name of the version where the implementation address is fetched\n   * @param contractName Name of the contract whose implementation address is requested\n   * @return Address where the contract is implemented\n   */\n  function getImplementation(string version, string contractName) public view returns (address) {\n    ImplementationProvider provider = getVersion(version);\n    return provider.getImplementation(contractName);\n  }\n}\n",
  "sourcePath": "zos-lib/contracts/application/versioning/Package.sol",
  "compiler": {
    "name": "solc",
    "version": "0.4.23+commit.124ca40d.Emscripten.clang"
  },
  "schemaVersion": "2.0.0",
  "updatedAt": "2018-05-16T21:00:36.274Z"
}