{
  "contractName": "UpgradeabilityProxyFactory",
  "abi": [
    {
      "anonymous": false,
      "inputs": [
        {
          "indexed": false,
          "name": "proxy",
          "type": "address"
        }
      ],
      "name": "ProxyCreated",
      "type": "event"
    },
    {
      "constant": false,
      "inputs": [
        {
          "name": "owner",
          "type": "address"
        },
        {
          "name": "implementation",
          "type": "address"
        }
      ],
      "name": "createProxy",
      "outputs": [
        {
          "name": "",
          "type": "address"
        }
      ],
      "payable": false,
      "stateMutability": "nonpayable",
      "type": "function"
    },
    {
      "constant": false,
      "inputs": [
        {
          "name": "owner",
          "type": "address"
        },
        {
          "name": "implementation",
          "type": "address"
        },
        {
          "name": "data",
          "type": "bytes"
        }
      ],
      "name": "createProxyAndCall",
      "outputs": [
        {
          "name": "",
          "type": "address"
        }
      ],
      "payable": true,
      "stateMutability": "payable",
      "type": "function"
    }
  ],
  "bytecode": "0x608060405234801561001057600080fd5b50610dcf806100206000396000f30060806040526004361061004c576000357c0100000000000000000000000000000000000000000000000000000000900463ffffffff16806325b5672714610051578063c6e8b4f3146100f4575b600080fd5b34801561005d57600080fd5b506100b2600480360381019080803573ffffffffffffffffffffffffffffffffffffffff169060200190929190803573ffffffffffffffffffffffffffffffffffffffff1690602001909291905050506101d0565b604051808273ffffffffffffffffffffffffffffffffffffffff1673ffffffffffffffffffffffffffffffffffffffff16815260200191505060405180910390f35b61018e600480360381019080803573ffffffffffffffffffffffffffffffffffffffff169060200190929190803573ffffffffffffffffffffffffffffffffffffffff169060200190929190803590602001908201803590602001908080601f016020809104026020016040519081016040528093929190818152602001838380828437820191505050505050919291929050505061029b565b604051808273ffffffffffffffffffffffffffffffffffffffff1673ffffffffffffffffffffffffffffffffffffffff16815260200191505060405180910390f35b6000806101dc836103fa565b90508073ffffffffffffffffffffffffffffffffffffffff16638f283970856040518263ffffffff167c0100000000000000000000000000000000000000000000000000000000028152600401808273ffffffffffffffffffffffffffffffffffffffff1673ffffffffffffffffffffffffffffffffffffffff168152602001915050600060405180830381600087803b15801561027957600080fd5b505af115801561028d573d6000803e3d6000fd5b505050508091505092915050565b6000806102a7846103fa565b90508073ffffffffffffffffffffffffffffffffffffffff16638f283970866040518263ffffffff167c0100000000000000000000000000000000000000000000000000000000028152600401808273ffffffffffffffffffffffffffffffffffffffff1673ffffffffffffffffffffffffffffffffffffffff168152602001915050600060405180830381600087803b15801561034457600080fd5b505af1158015610358573d6000803e3d6000fd5b505050508073ffffffffffffffffffffffffffffffffffffffff16348460405180828051906020019080838360005b838110156103a2578082015181840152602081019050610387565b50505050905090810190601f1680156103cf5780820380516001836020036101000a031916815260200191505b5091505060006040518083038185875af19250505015156103ef57600080fd5b809150509392505050565b600080826104066104c6565b808273ffffffffffffffffffffffffffffffffffffffff1673ffffffffffffffffffffffffffffffffffffffff168152602001915050604051809103906000f080158015610458573d6000803e3d6000fd5b5090507efffc2da0b561cae30d9826d37709e9421c4725faebc226cbbb7ef5fc5e734981604051808273ffffffffffffffffffffffffffffffffffffffff1673ffffffffffffffffffffffffffffffffffffffff16815260200191505060405180910390a180915050919050565b6040516108cd806104d7833901905600608060405234801561001057600080fd5b506040516020806108cd833981018060405281019080805190602001909291905050508061004c8161006b640100000000026401000000009004565b50610065336100f9640100000000026401000000009004565b5061014d565b60006100898261013a64010000000002610732176401000000009004565b151561009457600080fd5b60405180807f6f72672e7a657070656c696e6f732e70726f78792e696d706c656d656e74617481526020017f696f6e00000000000000000000000000000000000000000000000000000000008152506023019050604051809103902090508181555050565b600060405180807f6f72672e7a657070656c696e6f732e70726f78792e61646d696e000000000000815250601a019050604051809103902090508181555050565b600080823b905060008111915050919050565b6107718061015c6000396000f30060806040526004361061006d576000357c0100000000000000000000000000000000000000000000000000000000900463ffffffff1680633659cfe6146100775780634f1ef286146100ba5780635c60da1b146101085780638f2839701461015f578063f851a440146101a2575b6100756101f9565b005b34801561008357600080fd5b506100b8600480360381019080803573ffffffffffffffffffffffffffffffffffffffff169060200190929190505050610213565b005b610106600480360381019080803573ffffffffffffffffffffffffffffffffffffffff169060200190929190803590602001908201803590602001919091929391929390505050610268565b005b34801561011457600080fd5b5061011d610308565b604051808273ffffffffffffffffffffffffffffffffffffffff1673ffffffffffffffffffffffffffffffffffffffff16815260200191505060405180910390f35b34801561016b57600080fd5b506101a0600480360381019080803573ffffffffffffffffffffffffffffffffffffffff169060200190929190505050610360565b005b3480156101ae57600080fd5b506101b761048f565b604051808273ffffffffffffffffffffffffffffffffffffffff1673ffffffffffffffffffffffffffffffffffffffff16815260200191505060405180910390f35b6102016104e7565b61021161020c610533565b61059c565b565b61021b6105c2565b73ffffffffffffffffffffffffffffffffffffffff163373ffffffffffffffffffffffffffffffffffffffff16141561025c5761025781610605565b610265565b6102646101f9565b5b50565b6102706105c2565b73ffffffffffffffffffffffffffffffffffffffff163373ffffffffffffffffffffffffffffffffffffffff1614156102fa576102ac83610605565b3073ffffffffffffffffffffffffffffffffffffffff163483836040518083838082843782019150509250505060006040518083038185875af19250505015156102f557600080fd5b610303565b6103026101f9565b5b505050565b60006103126105c2565b73ffffffffffffffffffffffffffffffffffffffff163373ffffffffffffffffffffffffffffffffffffffff1614156103545761034d610533565b905061035d565b61035c6101f9565b5b90565b6103686105c2565b73ffffffffffffffffffffffffffffffffffffffff163373ffffffffffffffffffffffffffffffffffffffff16141561048357600073ffffffffffffffffffffffffffffffffffffffff168173ffffffffffffffffffffffffffffffffffffffff16141515156103d757600080fd5b7f7e644d79422f17c01e4894b5f4f588d331ebfa28653d42ae832dc59e38c9798f6104006105c2565b82604051808373ffffffffffffffffffffffffffffffffffffffff1673ffffffffffffffffffffffffffffffffffffffff1681526020018273ffffffffffffffffffffffffffffffffffffffff1673ffffffffffffffffffffffffffffffffffffffff1681526020019250505060405180910390a161047e81610674565b61048c565b61048b6101f9565b5b50565b60006104996105c2565b73ffffffffffffffffffffffffffffffffffffffff163373ffffffffffffffffffffffffffffffffffffffff1614156104db576104d46105c2565b90506104e4565b6104e36101f9565b5b90565b6104ef6105c2565b73ffffffffffffffffffffffffffffffffffffffff163373ffffffffffffffffffffffffffffffffffffffff161415151561052957600080fd5b6105316106b5565b565b60008060405180807f6f72672e7a657070656c696e6f732e70726f78792e696d706c656d656e74617481526020017f696f6e0000000000000000000000000000000000000000000000000000000000815250602301905060405180910390209050805491505090565b60405136600082376000803683855af43d6000833e80600081146105be573d83f35b3d83fd5b60008060405180807f6f72672e7a657070656c696e6f732e70726f78792e61646d696e000000000000815250601a01905060405180910390209050805491505090565b61060e816106b7565b7fbc7cd75a20ee27fd9adebab32041f755214dbc6bffa90cc0225b39da2e5c2d3b81604051808273ffffffffffffffffffffffffffffffffffffffff1673ffffffffffffffffffffffffffffffffffffffff16815260200191505060405180910390a150565b600060405180807f6f72672e7a657070656c696e6f732e70726f78792e61646d696e000000000000815250601a019050604051809103902090508181555050565b565b60006106c282610732565b15156106cd57600080fd5b60405180807f6f72672e7a657070656c696e6f732e70726f78792e696d706c656d656e74617481526020017f696f6e00000000000000000000000000000000000000000000000000000000008152506023019050604051809103902090508181555050565b600080823b9050600081119150509190505600a165627a7a72305820f4755e15874139f70ddaa1dcc9d4145fa911805820a63135791353e5a44f48900029a165627a7a72305820344c2dcf49536b60fedc7ae811a2fbf97b48d981cda8f5fa0693b0766f4156620029",
  "source": "pragma solidity ^0.4.21;\n\nimport './AdminUpgradeabilityProxy.sol';\n\n/**\n * @title UpgradeabilityProxyFactory\n * @dev Creates upgradeability proxies\n */\ncontract UpgradeabilityProxyFactory {\n  /**\n   * @dev Emitted every time a new proxy is created\n   * @param proxy The address of the created proxy\n   */\n  event ProxyCreated(address proxy);\n\n  /**\n   * @dev Creates an upgradeability proxy upgraded to an initial version\n   * @param owner the owner of the proxy to be set\n   * @param implementation the address of the initial implementation to be set\n   * @return address of the new proxy created\n   */\n  function createProxy(address owner, address implementation) public returns (AdminUpgradeabilityProxy) {\n    AdminUpgradeabilityProxy proxy = _createProxy(implementation);\n    proxy.changeAdmin(owner);\n    return proxy;\n  }\n\n  /**\n   * @dev Creates an upgradeability proxy upgraded to an initial version and call the new implementation\n   * @param owner the owner of the proxy to be set\n   * @param implementation the address of the initial implementation to be set\n   * @param data The msg.data to bet sent in the low level call. This parameter may include the function\n   * signature of the implementation to be called with the needed payload\n   * @return address of the new proxy created\n   */\n  function createProxyAndCall(address owner, address implementation, bytes data) public payable returns (AdminUpgradeabilityProxy) {\n    AdminUpgradeabilityProxy proxy = _createProxy(implementation);\n    proxy.changeAdmin(owner);\n    require(proxy.call.value(msg.value)(data));\n    return proxy;\n  }\n\n  /**\n   * @dev Internal function to create an upgradeable proxy\n   * @param implementation the address of the initial implementation to be set\n   * @return address of the new proxy created\n   */\n  function _createProxy(address implementation) internal returns (AdminUpgradeabilityProxy) {\n    AdminUpgradeabilityProxy proxy = new AdminUpgradeabilityProxy(implementation);\n    emit ProxyCreated(proxy);\n    return proxy;\n  }\n}\n",
  "sourcePath": "zos-lib/contracts/upgradeability/UpgradeabilityProxyFactory.sol",
  "compiler": {
    "name": "solc",
    "version": "0.4.23+commit.124ca40d.Emscripten.clang"
  },
  "schemaVersion": "2.0.0",
  "updatedAt": "2018-05-16T21:00:36.276Z"
}